{
  "contractName": "TokenGateway",
  "abi": [
    {
      "constant": true,
      "inputs": [],
      "name": "ERC20Interface",
      "outputs": [
        {
          "name": "",
          "type": "address"
        }
      ],
      "payable": false,
      "stateMutability": "view",
      "type": "function"
    },
    {
      "constant": false,
      "inputs": [],
      "name": "unpause",
      "outputs": [],
      "payable": false,
      "stateMutability": "nonpayable",
      "type": "function"
    },
    {
      "constant": true,
      "inputs": [],
      "name": "paused",
      "outputs": [
        {
          "name": "",
          "type": "bool"
        }
      ],
      "payable": false,
      "stateMutability": "view",
      "type": "function"
    },
    {
      "constant": false,
      "inputs": [],
      "name": "renounceOwnership",
      "outputs": [],
      "payable": false,
      "stateMutability": "nonpayable",
      "type": "function"
    },
    {
      "constant": false,
      "inputs": [],
      "name": "pause",
      "outputs": [],
      "payable": false,
      "stateMutability": "nonpayable",
      "type": "function"
    },
    {
      "constant": true,
      "inputs": [],
      "name": "owner",
      "outputs": [
        {
          "name": "",
          "type": "address"
        }
      ],
      "payable": false,
      "stateMutability": "view",
      "type": "function"
    },
    {
      "constant": true,
      "inputs": [
        {
          "name": "",
          "type": "bytes32"
        }
      ],
      "name": "tokens",
      "outputs": [
        {
          "name": "",
          "type": "address"
        }
      ],
      "payable": false,
      "stateMutability": "view",
      "type": "function"
    },
    {
      "constant": true,
      "inputs": [
        {
          "name": "",
          "type": "uint256"
        }
      ],
      "name": "transactions",
      "outputs": [
        {
          "name": "contract_",
          "type": "address"
        },
        {
          "name": "to_",
          "type": "address"
        },
        {
          "name": "amount_",
          "type": "uint256"
        },
        {
          "name": "failed_",
          "type": "bool"
        }
      ],
      "payable": false,
      "stateMutability": "view",
      "type": "function"
    },
    {
      "constant": true,
      "inputs": [
        {
          "name": "",
          "type": "address"
        },
        {
          "name": "",
          "type": "uint256"
        }
      ],
      "name": "transactionIndexesToSender",
      "outputs": [
        {
          "name": "",
          "type": "uint256"
        }
      ],
      "payable": false,
      "stateMutability": "view",
      "type": "function"
    },
    {
      "constant": false,
      "inputs": [
        {
          "name": "_newOwner",
          "type": "address"
        }
      ],
      "name": "transferOwnership",
      "outputs": [],
      "payable": false,
      "stateMutability": "nonpayable",
      "type": "function"
    },
    {
      "payable": true,
      "stateMutability": "payable",
      "type": "fallback"
    },
    {
      "anonymous": false,
      "inputs": [
        {
          "indexed": true,
          "name": "from_",
          "type": "address"
        },
        {
          "indexed": true,
          "name": "to_",
          "type": "address"
        },
        {
          "indexed": false,
          "name": "amount_",
          "type": "uint256"
        }
      ],
      "name": "TransferSuccessful",
      "type": "event"
    },
    {
      "anonymous": false,
      "inputs": [
        {
          "indexed": true,
          "name": "from_",
          "type": "address"
        },
        {
          "indexed": true,
          "name": "to_",
          "type": "address"
        },
        {
          "indexed": false,
          "name": "amount_",
          "type": "uint256"
        }
      ],
      "name": "TransferFailed",
      "type": "event"
    },
    {
      "anonymous": false,
      "inputs": [],
      "name": "Pause",
      "type": "event"
    },
    {
      "anonymous": false,
      "inputs": [],
      "name": "Unpause",
      "type": "event"
    },
    {
      "anonymous": false,
      "inputs": [
        {
          "indexed": true,
          "name": "previousOwner",
          "type": "address"
        }
      ],
      "name": "OwnershipRenounced",
      "type": "event"
    },
    {
      "anonymous": false,
      "inputs": [
        {
          "indexed": true,
          "name": "previousOwner",
          "type": "address"
        },
        {
          "indexed": true,
          "name": "newOwner",
          "type": "address"
        }
      ],
      "name": "OwnershipTransferred",
      "type": "event"
    },
    {
      "constant": false,
      "inputs": [
        {
          "name": "symbol_",
          "type": "bytes32"
        },
        {
          "name": "address_",
          "type": "address"
        }
      ],
      "name": "addNewToken",
      "outputs": [
        {
          "name": "",
          "type": "bool"
        }
      ],
      "payable": false,
      "stateMutability": "nonpayable",
      "type": "function"
    },
    {
      "constant": false,
      "inputs": [
        {
          "name": "symbol_",
          "type": "bytes32"
        }
      ],
      "name": "removeToken",
      "outputs": [
        {
          "name": "",
          "type": "bool"
        }
      ],
      "payable": false,
      "stateMutability": "nonpayable",
      "type": "function"
    },
    {
      "constant": true,
      "inputs": [
        {
          "name": "user_",
          "type": "address"
        },
        {
          "name": "symbol_",
          "type": "bytes32"
        }
      ],
      "name": "balanceOf",
      "outputs": [
        {
          "name": "",
          "type": "uint256"
        }
      ],
      "payable": false,
      "stateMutability": "view",
      "type": "function"
    },
    {
      "constant": true,
      "inputs": [
        {
          "name": "user_",
          "type": "address"
        },
        {
          "name": "symbol_",
          "type": "bytes32"
        }
      ],
      "name": "balanceOfFreezed",
      "outputs": [
        {
          "name": "",
          "type": "uint256"
        }
      ],
      "payable": false,
      "stateMutability": "view",
      "type": "function"
    },
    {
      "constant": true,
      "inputs": [
        {
          "name": "user_",
          "type": "address"
        },
        {
          "name": "symbol_",
          "type": "bytes32"
        }
      ],
      "name": "balanceOfAvailable",
      "outputs": [
        {
          "name": "",
          "type": "uint256"
        }
      ],
      "payable": false,
      "stateMutability": "view",
      "type": "function"
    },
    {
      "constant": false,
      "inputs": [
        {
          "name": "user_",
          "type": "address"
        },
        {
          "name": "symbol_",
          "type": "bytes32"
        },
        {
          "name": "amount_",
          "type": "uint256"
        }
      ],
      "name": "freezeToken",
      "outputs": [],
      "payable": false,
      "stateMutability": "nonpayable",
      "type": "function"
    },
    {
      "constant": false,
      "inputs": [
        {
          "name": "user_",
          "type": "address"
        },
        {
          "name": "symbol_",
          "type": "bytes32"
        },
        {
          "name": "amount_",
          "type": "uint256"
        }
      ],
      "name": "unfreezeToken",
      "outputs": [],
      "payable": false,
      "stateMutability": "nonpayable",
      "type": "function"
    },
    {
      "constant": false,
      "inputs": [
        {
          "name": "symbol_",
          "type": "bytes32"
        },
        {
          "name": "amount_",
          "type": "uint256"
        }
      ],
      "name": "deposit",
      "outputs": [],
      "payable": false,
      "stateMutability": "nonpayable",
      "type": "function"
    },
    {
      "constant": false,
      "inputs": [
        {
          "name": "symbol_",
          "type": "bytes32"
        },
        {
          "name": "to_",
          "type": "address"
        },
        {
          "name": "amount_",
          "type": "uint256"
        }
      ],
      "name": "transferTokens",
      "outputs": [],
      "payable": false,
      "stateMutability": "nonpayable",
      "type": "function"
    },
    {
      "constant": false,
      "inputs": [
        {
          "name": "beneficiary",
          "type": "address"
        }
      ],
      "name": "withdraw",
      "outputs": [],
      "payable": true,
      "stateMutability": "payable",
      "type": "function"
    }
  ],
  "bytecode": "0x608060405260008060146101000a81548160ff021916908315150217905550336000806101000a81548173ffffffffffffffffffffffffffffffffffffffff021916908373ffffffffffffffffffffffffffffffffffffffff1602179055506120e78061006d6000396000f300608060405260043610610112576000357c0100000000000000000000000000000000000000000000000000000000900463ffffffff1680631bbc4b83146101145780631de26e161461016b5780631f9988c9146101a6578063224e7462146102015780633f4ba83a1461024a57806345288fce146102615780634d30b6be146102bc57806351cff8d914610321578063558d9c09146103575780635c975abb146103b2578063715018a6146103e15780638456cb59146103f85780638da5cb5b1461040f578063904194a3146104665780639ace38c2146104d75780639b10d5ee14610589578063b082443b146105ee578063c479643714610657578063e04e3fed146106b8578063f2fde38b1461071d575b005b34801561012057600080fd5b50610129610760565b604051808273ffffffffffffffffffffffffffffffffffffffff1673ffffffffffffffffffffffffffffffffffffffff16815260200191505060405180910390f35b34801561017757600080fd5b506101a4600480360381019080803560001916906020019092919080359060200190929190505050610786565b005b3480156101b257600080fd5b506101ff6004803603810190808035600019169060200190929190803573ffffffffffffffffffffffffffffffffffffffff16906020019092919080359060200190929190505050610ef9565b005b34801561020d57600080fd5b506102306004803603810190808035600019169060200190929190505050611667565b604051808215151515815260200191505060405180910390f35b34801561025657600080fd5b5061025f61176c565b005b34801561026d57600080fd5b506102ba600480360381019080803573ffffffffffffffffffffffffffffffffffffffff16906020019092919080356000191690602001909291908035906020019092919050505061182a565b005b3480156102c857600080fd5b5061030b600480360381019080803573ffffffffffffffffffffffffffffffffffffffff169060200190929190803560001916906020019092919050505061190b565b6040518082815260200191505060405180910390f35b610355600480360381019080803573ffffffffffffffffffffffffffffffffffffffff169060200190929190505050611971565b005b34801561036357600080fd5b506103b0600480360381019080803573ffffffffffffffffffffffffffffffffffffffff169060200190929190803560001916906020019092919080359060200190929190505050611a49565b005b3480156103be57600080fd5b506103c7611b2a565b604051808215151515815260200191505060405180910390f35b3480156103ed57600080fd5b506103f6611b3d565b005b34801561040457600080fd5b5061040d611c3f565b005b34801561041b57600080fd5b50610424611cff565b604051808273ffffffffffffffffffffffffffffffffffffffff1673ffffffffffffffffffffffffffffffffffffffff16815260200191505060405180910390f35b34801561047257600080fd5b506104956004803603810190808035600019169060200190929190505050611d25565b604051808273ffffffffffffffffffffffffffffffffffffffff1673ffffffffffffffffffffffffffffffffffffffff16815260200191505060405180910390f35b3480156104e357600080fd5b5061050260048036038101908080359060200190929190505050611d58565b604051808573ffffffffffffffffffffffffffffffffffffffff1673ffffffffffffffffffffffffffffffffffffffff1681526020018473ffffffffffffffffffffffffffffffffffffffff1673ffffffffffffffffffffffffffffffffffffffff1681526020018381526020018215151515815260200194505050505060405180910390f35b34801561059557600080fd5b506105d8600480360381019080803573ffffffffffffffffffffffffffffffffffffffff1690602001909291908035600019169060200190929190505050611de4565b6040518082815260200191505060405180910390f35b3480156105fa57600080fd5b5061063d6004803603810190808035600019169060200190929190803573ffffffffffffffffffffffffffffffffffffffff169060200190929190505050611e4a565b604051808215151515815260200191505060405180910390f35b34801561066357600080fd5b506106a2600480360381019080803573ffffffffffffffffffffffffffffffffffffffff16906020019092919080359060200190929190505050611f0b565b6040518082815260200191505060405180910390f35b3480156106c457600080fd5b50610707600480360381019080803573ffffffffffffffffffffffffffffffffffffffff1690602001909291908035600019169060200190929190505050611f3b565b6040518082815260200191505060405180910390f35b34801561072957600080fd5b5061075e600480360381019080803573ffffffffffffffffffffffffffffffffffffffff169060200190929190505050611f5a565b005b600660009054906101000a900473ffffffffffffffffffffffffffffffffffffffff1681565b600080600080600060149054906101000a900460ff161515156107a857600080fd5b600060056000886000191660001916815260200190815260200160002060009054906101000a900473ffffffffffffffffffffffffffffffffffffffff1673ffffffffffffffffffffffffffffffffffffffff1614151515610872576040517f08c379a000000000000000000000000000000000000000000000000000000000815260040180806020018281038252600e8152602001807f696e76616c69642073796d626f6c00000000000000000000000000000000000081525060200191505060405180910390fd5b6000851115156108ea576040517f08c379a000000000000000000000000000000000000000000000000000000000815260040180806020018281038252601a8152602001807f616d6f756e74206d7573742067726561746572207468616e203000000000000081525060200191505060405180910390fd5b60056000876000191660001916815260200190815260200160002060009054906101000a900473ffffffffffffffffffffffffffffffffffffffff16935033925030915083600660006101000a81548173ffffffffffffffffffffffffffffffffffffffff021916908373ffffffffffffffffffffffffffffffffffffffff16021790555060036080604051908101604052808673ffffffffffffffffffffffffffffffffffffffff1681526020018473ffffffffffffffffffffffffffffffffffffffff168152602001878152602001600115158152509080600181540180825580915050906001820390600052602060002090600402016000909192909190915060008201518160000160006101000a81548173ffffffffffffffffffffffffffffffffffffffff021916908373ffffffffffffffffffffffffffffffffffffffff16021790555060208201518160010160006101000a81548173ffffffffffffffffffffffffffffffffffffffff021916908373ffffffffffffffffffffffffffffffffffffffff1602179055506040820151816002015560608201518160030160006101000a81548160ff02191690831515021790555050509050600260008473ffffffffffffffffffffffffffffffffffffffff1673ffffffffffffffffffffffffffffffffffffffff168152602001908152602001600020600182039080600181540180825580915050906001820390600052602060002001600090919290919091505550600660009054906101000a900473ffffffffffffffffffffffffffffffffffffffff1673ffffffffffffffffffffffffffffffffffffffff1663dd62ed3e84306040518363ffffffff167c0100000000000000000000000000000000000000000000000000000000028152600401808373ffffffffffffffffffffffffffffffffffffffff1673ffffffffffffffffffffffffffffffffffffffff1681526020018273ffffffffffffffffffffffffffffffffffffffff1673ffffffffffffffffffffffffffffffffffffffff16815260200192505050602060405180830381600087803b158015610c0657600080fd5b505af1158015610c1a573d6000803e3d6000fd5b505050506040513d6020811015610c3057600080fd5b8101908080519060200190929190505050851115610cb2578173ffffffffffffffffffffffffffffffffffffffff168373ffffffffffffffffffffffffffffffffffffffff167fbf182be802245e8ed88e4b8d3e4344c0863dd2a70334f089fd07265389306fcf876040518082815260200191505060405180910390a3600080fd5b600660009054906101000a900473ffffffffffffffffffffffffffffffffffffffff1673ffffffffffffffffffffffffffffffffffffffff166323b872dd8484886040518463ffffffff167c0100000000000000000000000000000000000000000000000000000000028152600401808473ffffffffffffffffffffffffffffffffffffffff1673ffffffffffffffffffffffffffffffffffffffff1681526020018373ffffffffffffffffffffffffffffffffffffffff1673ffffffffffffffffffffffffffffffffffffffff1681526020018281526020019350505050602060405180830381600087803b158015610dab57600080fd5b505af1158015610dbf573d6000803e3d6000fd5b505050506040513d6020811015610dd557600080fd5b8101908080519060200190929190505050506000600360018303815481101515610dfb57fe5b906000526020600020906004020160030160006101000a81548160ff02191690831515021790555084600160008573ffffffffffffffffffffffffffffffffffffffff1673ffffffffffffffffffffffffffffffffffffffff16815260200190815260200160002060000160008860001916600019168152602001908152602001600020600082825401925050819055508173ffffffffffffffffffffffffffffffffffffffff168373ffffffffffffffffffffffffffffffffffffffff167fd6d3eb25a413c05d8107fc49deb2789bef7f612582b2482804c0b0423b6638ee876040518082815260200191505060405180910390a3505050505050565b60008060008060149054906101000a900460ff16151515610f1957600080fd5b600060056000886000191660001916815260200190815260200160002060009054906101000a900473ffffffffffffffffffffffffffffffffffffffff1673ffffffffffffffffffffffffffffffffffffffff1614151515610fe3576040517f08c379a000000000000000000000000000000000000000000000000000000000815260040180806020018281038252600e8152602001807f696e76616c69642073796d626f6c00000000000000000000000000000000000081525060200191505060405180910390fd5b60008411151561105b576040517f08c379a000000000000000000000000000000000000000000000000000000000815260040180806020018281038252601a8152602001807f616d6f756e74206d7573742067726561746572207468616e203000000000000081525060200191505060405180910390fd5b60056000876000191660001916815260200190815260200160002060009054906101000a900473ffffffffffffffffffffffffffffffffffffffff16925033915082600660006101000a81548173ffffffffffffffffffffffffffffffffffffffff021916908373ffffffffffffffffffffffffffffffffffffffff16021790555060036080604051908101604052808573ffffffffffffffffffffffffffffffffffffffff1681526020018773ffffffffffffffffffffffffffffffffffffffff168152602001868152602001600115158152509080600181540180825580915050906001820390600052602060002090600402016000909192909190915060008201518160000160006101000a81548173ffffffffffffffffffffffffffffffffffffffff021916908373ffffffffffffffffffffffffffffffffffffffff16021790555060208201518160010160006101000a81548173ffffffffffffffffffffffffffffffffffffffff021916908373ffffffffffffffffffffffffffffffffffffffff1602179055506040820151816002015560608201518160030160006101000a81548160ff02191690831515021790555050509050600260008373ffffffffffffffffffffffffffffffffffffffff1673ffffffffffffffffffffffffffffffffffffffff168152602001908152602001600020600182039080600181540180825580915050906001820390600052602060002001600090919290919091505550600660009054906101000a900473ffffffffffffffffffffffffffffffffffffffff1673ffffffffffffffffffffffffffffffffffffffff1663dd62ed3e83306040518363ffffffff167c0100000000000000000000000000000000000000000000000000000000028152600401808373ffffffffffffffffffffffffffffffffffffffff1673ffffffffffffffffffffffffffffffffffffffff1681526020018273ffffffffffffffffffffffffffffffffffffffff1673ffffffffffffffffffffffffffffffffffffffff16815260200192505050602060405180830381600087803b15801561137457600080fd5b505af1158015611388573d6000803e3d6000fd5b505050506040513d602081101561139e57600080fd5b8101908080519060200190929190505050841115611489578473ffffffffffffffffffffffffffffffffffffffff168273ffffffffffffffffffffffffffffffffffffffff167fbf182be802245e8ed88e4b8d3e4344c0863dd2a70334f089fd07265389306fcf866040518082815260200191505060405180910390a36040517f08c379a000000000000000000000000000000000000000000000000000000000815260040180806020018281038252601d8152602001807f616d6f756e742067726561746572207468656e20616c6c6f77616e636500000081525060200191505060405180910390fd5b600660009054906101000a900473ffffffffffffffffffffffffffffffffffffffff1673ffffffffffffffffffffffffffffffffffffffff166323b872dd8387876040518463ffffffff167c0100000000000000000000000000000000000000000000000000000000028152600401808473ffffffffffffffffffffffffffffffffffffffff1673ffffffffffffffffffffffffffffffffffffffff1681526020018373ffffffffffffffffffffffffffffffffffffffff1673ffffffffffffffffffffffffffffffffffffffff1681526020018281526020019350505050602060405180830381600087803b15801561158257600080fd5b505af1158015611596573d6000803e3d6000fd5b505050506040513d60208110156115ac57600080fd5b81019080805190602001909291905050505060006003600183038154811015156115d257fe5b906000526020600020906004020160030160006101000a81548160ff0219169083151502179055508473ffffffffffffffffffffffffffffffffffffffff168273ffffffffffffffffffffffffffffffffffffffff167fd6d3eb25a413c05d8107fc49deb2789bef7f612582b2482804c0b0423b6638ee866040518082815260200191505060405180910390a3505050505050565b60008060009054906101000a900473ffffffffffffffffffffffffffffffffffffffff1673ffffffffffffffffffffffffffffffffffffffff163373ffffffffffffffffffffffffffffffffffffffff161415156116c457600080fd5b600060056000846000191660001916815260200190815260200160002060009054906101000a900473ffffffffffffffffffffffffffffffffffffffff1673ffffffffffffffffffffffffffffffffffffffff161415151561172557600080fd5b60056000836000191660001916815260200190815260200160002060006101000a81549073ffffffffffffffffffffffffffffffffffffffff021916905560019050919050565b6000809054906101000a900473ffffffffffffffffffffffffffffffffffffffff1673ffffffffffffffffffffffffffffffffffffffff163373ffffffffffffffffffffffffffffffffffffffff161415156117c757600080fd5b600060149054906101000a900460ff1615156117e257600080fd5b60008060146101000a81548160ff0219169083151502179055507f7805862f689e2f13df9f062ff482ad3ad112aca9e0847911ed832e158c525b3360405160405180910390a1565b6000809054906101000a900473ffffffffffffffffffffffffffffffffffffffff1673ffffffffffffffffffffffffffffffffffffffff163373ffffffffffffffffffffffffffffffffffffffff1614151561188557600080fd5b806118908484611de4565b1115151561189d57600080fd5b80600160008573ffffffffffffffffffffffffffffffffffffffff1673ffffffffffffffffffffffffffffffffffffffff1681526020019081526020016000206001016000846000191660001916815260200190815260200160002060008282540392505081905550505050565b6000600160008473ffffffffffffffffffffffffffffffffffffffff1673ffffffffffffffffffffffffffffffffffffffff1681526020019081526020016000206000016000836000191660001916815260200190815260200160002054905092915050565b6000809054906101000a900473ffffffffffffffffffffffffffffffffffffffff1673ffffffffffffffffffffffffffffffffffffffff163373ffffffffffffffffffffffffffffffffffffffff161415156119cc57600080fd5b600060149054906101000a900460ff161515156119e857600080fd5b8073ffffffffffffffffffffffffffffffffffffffff166108fc3073ffffffffffffffffffffffffffffffffffffffff16319081150290604051600060405180830381858888f19350505050158015611a45573d6000803e3d6000fd5b5050565b6000809054906101000a900473ffffffffffffffffffffffffffffffffffffffff1673ffffffffffffffffffffffffffffffffffffffff163373ffffffffffffffffffffffffffffffffffffffff16141515611aa457600080fd5b80611aaf8484611f3b565b10151515611abc57600080fd5b80600160008573ffffffffffffffffffffffffffffffffffffffff1673ffffffffffffffffffffffffffffffffffffffff1681526020019081526020016000206001016000846000191660001916815260200190815260200160002060008282540192505081905550505050565b600060149054906101000a900460ff1681565b6000809054906101000a900473ffffffffffffffffffffffffffffffffffffffff1673ffffffffffffffffffffffffffffffffffffffff163373ffffffffffffffffffffffffffffffffffffffff16141515611b9857600080fd5b6000809054906101000a900473ffffffffffffffffffffffffffffffffffffffff1673ffffffffffffffffffffffffffffffffffffffff167ff8df31144d9c2f0f6b59d69b8b98abd5459d07f2742c4df920b25aae33c6482060405160405180910390a260008060006101000a81548173ffffffffffffffffffffffffffffffffffffffff021916908373ffffffffffffffffffffffffffffffffffffffff160217905550565b6000809054906101000a900473ffffffffffffffffffffffffffffffffffffffff1673ffffffffffffffffffffffffffffffffffffffff163373ffffffffffffffffffffffffffffffffffffffff16141515611c9a57600080fd5b600060149054906101000a900460ff16151515611cb657600080fd5b6001600060146101000a81548160ff0219169083151502179055507f6985a02210a168e66602d3235cb6db0e70f92b3ba4d376a33c0f3d9434bff62560405160405180910390a1565b600460009054906101000a900473ffffffffffffffffffffffffffffffffffffffff1681565b60056020528060005260406000206000915054906101000a900473ffffffffffffffffffffffffffffffffffffffff1681565b600381815481101515611d6757fe5b90600052602060002090600402016000915090508060000160009054906101000a900473ffffffffffffffffffffffffffffffffffffffff16908060010160009054906101000a900473ffffffffffffffffffffffffffffffffffffffff16908060020154908060030160009054906101000a900460ff16905084565b6000600160008473ffffffffffffffffffffffffffffffffffffffff1673ffffffffffffffffffffffffffffffffffffffff1681526020019081526020016000206001016000836000191660001916815260200190815260200160002054905092915050565b60008060009054906101000a900473ffffffffffffffffffffffffffffffffffffffff1673ffffffffffffffffffffffffffffffffffffffff163373ffffffffffffffffffffffffffffffffffffffff16141515611ea757600080fd5b8160056000856000191660001916815260200190815260200160002060006101000a81548173ffffffffffffffffffffffffffffffffffffffff021916908373ffffffffffffffffffffffffffffffffffffffff1602179055506001905092915050565b600260205281600052604060002081815481101515611f2657fe5b90600052602060002001600091509150505481565b6000611f478383611de4565b611f51848461190b565b03905092915050565b6000809054906101000a900473ffffffffffffffffffffffffffffffffffffffff1673ffffffffffffffffffffffffffffffffffffffff163373ffffffffffffffffffffffffffffffffffffffff16141515611fb557600080fd5b611fbe81611fc1565b50565b600073ffffffffffffffffffffffffffffffffffffffff168173ffffffffffffffffffffffffffffffffffffffff1614151515611ffd57600080fd5b8073ffffffffffffffffffffffffffffffffffffffff166000809054906101000a900473ffffffffffffffffffffffffffffffffffffffff1673ffffffffffffffffffffffffffffffffffffffff167f8be0079c531659141344cd1fd0a4f28419497f9722a3daafe3b4186f6b6457e060405160405180910390a3806000806101000a81548173ffffffffffffffffffffffffffffffffffffffff021916908373ffffffffffffffffffffffffffffffffffffffff160217905550505600a165627a7a72305820ab94d870c3b8c929c93d474a1d5f9eeb555ae8ec19b03f94421505f26ca53da30029",
  "source": "pragma solidity ^0.4.23;\n\nimport \"openzeppelin-solidity/contracts/token/ERC20/ERC20.sol\";\nimport \"openzeppelin-solidity/contracts/lifecycle/Pausable.sol\";\n\ncontract TokenGateway is Ownable, Pausable {\n    /**\n    * @dev Details of each transfer\n    * @param contract_ contract address of ER20 token to transfer\n    * @param to_ receiving account\n    * @param amount_ number of tokens to transfer to_ account\n    * @param failed_ if transfer was successful or not\n    */\n    struct Transfer {\n        address contract_;\n        address to_;\n        uint amount_;\n        bool failed_;\n    }\n    /**\n    * @dev Wallet details of echo user\n    * @param totalBalance total balance of ER20 token\n    * @param freezedBalance receiving account\n    * @param isDisabled is that user being disabled\n    * @param isOnTransaction is on trnascation, not allow to withdraw\n    */\n\n    struct User {\n        mapping(bytes32 => uint256) totalBalance;\n        mapping(bytes32 => uint256) freezedBalance;\n        bool isDisabled;\n        bool isLocked;\n    }\n\n    mapping(address => User) private userBalances_;\n    /**\n    * @dev a mapping from transaction ID's to the sender address\n    * that initiates them. Owners can create several transactions\n    */\n    mapping(address => uint[]) public transactionIndexesToSender;\n    /**\n    * @dev a list of all transfers successful or unsuccessful\n    */\n    Transfer[] public transactions;\n\n    address public owner;\n\n    /**\n    * @dev list of all supported tokens for transfer\n    * @param string token symbol\n    * @param address contract address of token\n    */\n    mapping(bytes32 => address) public tokens;\n\n    ERC20 public ERC20Interface;\n    /**\n    * @dev Event to notify if transfer successful or failed\n    * after account approval verified\n    */\n    event TransferSuccessful(address indexed from_, address indexed to_, uint256 amount_);\n\n    event TransferFailed(address indexed from_, address indexed to_, uint256 amount_);\n\n\n    /**\n    * @dev add address of token to list of supported tokens using\n    * token symbol as identifier in mapping\n    */\n    function addNewToken(bytes32 symbol_, address address_) public onlyOwner returns (bool) {\n        tokens[symbol_] = address_;\n\n        return true;\n    }\n\n    /**\n    * @dev remove address of token we no more support\n    */\n    function removeToken(bytes32 symbol_) public onlyOwner   returns (bool) {\n        require(tokens[symbol_] != 0x0);\n\n        delete (tokens[symbol_]);\n\n        return true;\n    }\n\n    function balanceOf(address user_, bytes32 symbol_) public view returns (uint256) {\n        return userBalances_[user_].totalBalance[symbol_];\n\n    }\n\n    function balanceOfFreezed(address user_, bytes32 symbol_) public view returns (uint256) {\n        return userBalances_[user_].freezedBalance[symbol_];\n\n    }\n\n    function balanceOfAvailable(address user_, bytes32 symbol_) public view returns (uint256) {\n        return balanceOf(user_, symbol_) - balanceOfFreezed(user_, symbol_);\n\n    }\n    function setUserLock(address user_, bool lock) private{\n        userBalances_[user_].isLocked = lock;\n    }\n\n    function getUserLock(address user_) private view returns (bool) {\n        return userBalances_[user_].isLocked;\n    }\n\n    function freezeToken(address user_, bytes32 symbol_, uint256 amount_)  onlyOwner public {\n        require( balanceOfAvailable(user_, symbol_) >= amount_);\n        userBalances_[user_].freezedBalance[symbol_] += amount_;\n\n\n    }\n\n    function unfreezeToken(address user_, bytes32 symbol_, uint256 amount_) onlyOwner public {\n        require(balanceOfFreezed(user_, symbol_) <= amount_);\n        userBalances_[user_].freezedBalance[symbol_] -= amount_;\n\n    }\n\n    function deposit(bytes32 symbol_, uint256 amount_) public whenNotPaused {\n        require(tokens[symbol_] != 0x0, \"invalid symbol\");\n        require(amount_ > 0 ,\"amount must greater than 0\");\n\n        address contract_ = tokens[symbol_];\n        address from_ = msg.sender;\n        address to_ = address(this);\n        ERC20Interface = ERC20(contract_);\n\n        uint256 transactionId = transactions.push(\n            Transfer({\n            contract_ : contract_,\n            to_ : to_,\n            amount_ : amount_,\n            failed_ : true\n            })\n        );\n        transactionIndexesToSender[from_].push(transactionId - 1);\n\n        if (amount_ > ERC20Interface.allowance(from_, address(this))) {\n            emit TransferFailed(from_, to_, amount_);\n            revert();\n        }\n        ERC20Interface.transferFrom(from_, to_, amount_);\n\n        transactions[transactionId - 1].failed_ = false;\n\n        userBalances_[from_].totalBalance[symbol_] += amount_;\n        emit TransferSuccessful(from_, to_, amount_);\n    }\n    /**\n    * @dev method that handles transfer of ERC20 tokens to other address\n    * it assumes the calling address has approved this contract\n    * as spender\n    * @param symbol_ identifier mapping to a token contract address\n    * @param to_ beneficiary address\n    * @param amount_ numbers of token to transfer\n    */\n    function transferTokens(bytes32 symbol_, address to_, uint256 amount_) public whenNotPaused {\n        require(tokens[symbol_] != 0x0, \"invalid symbol\");\n        require(amount_ > 0 ,\"amount must greater than 0\");\n\n\n        address contract_ = tokens[symbol_];\n        address from_ = msg.sender;\n\n        ERC20Interface = ERC20(contract_);\n\n        uint256 transactionId = transactions.push(\n            Transfer({\n            contract_ : contract_,\n            to_ : to_,\n            amount_ : amount_,\n            failed_ : true\n            })\n        );\n        transactionIndexesToSender[from_].push(transactionId - 1);\n\n        if (amount_ > ERC20Interface.allowance(from_, address(this))) {\n            emit TransferFailed(from_, to_, amount_);\n            revert(\"amount greater then allowance\");\n        }\n        ERC20Interface.transferFrom(from_, to_, amount_);\n\n        transactions[transactionId - 1].failed_ = false;\n\n        emit TransferSuccessful(from_, to_, amount_);\n    }\n\n    /**\n    * @dev allow contract to receive funds\n    */\n    function() public payable {}\n\n    /**\n    * @dev withdraw funds from this contract\n    * @param beneficiary address to receive ether\n    */\n    function withdraw(address beneficiary) public payable onlyOwner whenNotPaused {\n        beneficiary.transfer(address(this).balance);\n    }\n}\n",
  "sourcePath": "/Users/coolerhei/protonwallet/ethapp/contracts/TokenGateway.sol",
  "compiler": {
    "name": "solc",
    "version": "0.4.25+commit.59dbf8f1.Emscripten.clang"
  },
  "schemaVersion": "2.0.2",
  "updatedAt": "2019-01-12T22:25:23.763Z"
}